:100000000C9458000C9473000C9473000C947300BF
:100010000C9473000C9473000C9473000C94730094
:100020000C9473000C9473000C9473000C94910462
:100030000C9473000C9473000C9473000C94730074
:100040000C9473000C9473000C9473000C94730064
:100050000C9473005B25695D004D656E75652044E9
:10006000656D6F00486F6C67657220427573730031
:1000700054696D65002533693A253032690054654D
:1000800073747661726961626C650054657374495A
:100090006E743A25356900546573746172726179C2
:1000A0000041727261795B25695D3D25336900000D
:1000B00011241FBECFE5D8E0DEBFCDBF10E0A0E623
:1000C000B0E0E2EAF6E102C005900D92AC37B1076C
:1000D000D9F710E0ACE7B0E001C01D92AA39B10732
:1000E000E1F70C94A3000C94000088EE93E00E94CA
:1000F000B4049093810080938000089580918000E3
:10010000909181000E94BB048823D9F080918000E7
:100110009091810088519C4F909381008093800042
:1001200088B38F5F88BB80917D008F5F80937D0057
:100130008C3339F410927D0080917C008F5F809326
:100140007C0008950895CAE5D8E0DEBFCDBF85E004
:10015000DE011196E0E6F0E001900D928A95E1F75C
:100160000E94E6000E9449010E94E6000E94AB0442
:100170000E94D3040E94750078948FEF87BB88BBE0
:1001800081E00E940B010E94F3000E94DC040E94A7
:10019000610585E690E09F938F930E94F9068AE0BF
:1001A00090E00E94C6040E947E000F900F90EDCF59
:1001B000CF93C82F8A3019F48DE00E94D8005D9B40
:1001C000FECFCCB980E090E0CF91089588E08AB965
:1001D0008CE089B940E050E0BA0188ED90E00E94DF
:1001E000A506949A089588E893E1A0E0B0E003970B
:1001F000A109B1098F3F2FEF92072FEFA2072FEF31
:10020000B207A9F7089584EF91E003972FEF8F3F8E
:100210009207D9F70895282F807F982F946095BB77
:1002200095BB85BB85BB822F992734E0880F991F2A
:100230003A95E1F7846085BB85BB2295207F25BB7D
:100240000895282F332744E0220F331F4A95E1F702
:10025000922F946095BB95BB8295807F85BB089556
:10026000282F807F982F956095BB816085BB822F5A
:10027000992754E0880F991F5A95E1F7282F256098
:1002800025BB816085BB08950E94300181E090E02C
:1002900008958FEF84BB0E94F3000E94F3000E9438
:1002A000F30083E00E9421010E94F30083E00E949A
:1002B00021010E94F30083E00E9421010E94F300CB
:1002C00082E00E9421010E94F30088E20E940B015B
:1002D0000E94F30088E00E940B010E94F30081E07D
:1002E0000E940B010E94F30086E00E940B010E9415
:1002F000F3008CE00E940B010E94F30008951F930D
:10030000CF93C82F162F0E940301812F9927813088
:10031000910579F0823091051CF4892B39F013C0D6
:100320008230910549F0039751F00DC08C2F805811
:1003300008C08C2F805405C08C2F8C5602C08C2F87
:100340008C520E940B01CF911F9108951F93CF9360
:10035000DF93EC0110E08881882379F0FE01E10F42
:10036000F11D1F5F80810E9430010E94F300FE0199
:10037000E10FF11D8081882389F7DF91CF911F91D3
:1003800008951F93182F0E940301812F0E943001AE
:1003900081E090E01F9108950F931F93CF93DF9317
:1003A0008C01EB01672B39F0F80181918F010E94DC
:1003B000C1012197C9F7DF91CF911F910F91089546
:1003C0000F931F93CF93DF938C01EB01672B41F0C9
:1003D000F8010F5F1F4F84910E94C1012197C1F75F
:1003E000DF91CF911F910F910895CF93C82F1816C9
:1003F00034F480E20E94C101C1501C16D4F3CF91A5
:100400000895CF93C82F181634F480E30E94C101D9
:10041000C1501C16D4F3CF9108952F923F924F9262
:100420005F926F927F928F929F92AF92BF92CF9284
:10043000DF92EF92FF920F931F93CF93DF93CDB78D
:10044000DEB7E0970FB6F894DEBF0FBECDBFA5E4D0
:100450006A2E712C6C0E7D1E1CA61DA61EA61FA644
:10046000D301AD90BD903D01C50105C0053239F005
:100470000894A11CB11CF50104910023B9F7B50142
:10048000681B790B11F00E94E001002309F430C2CF
:100490000894A11CB11C552458AA252C1FEF59A65D
:1004A000F5010894A11CB11C0491053721F0802F9F
:1004B00080628837F1F450FE0EC0F30124E030E092
:1004C000620E731E80819181A281B3818CA79DA74A
:1004D000AEA7BFA70EC0F301A2E0B0E06A0E7B1E7C
:1004E000808191819C01442755272CA73DA74EA7C9
:1004F0005FA7003221F489A5882391F61BC003323F
:1005000011F438E081C00A3211F00D3289F40A3258
:1005100051F4F30142E050E0640E751E2080222069
:100520000CF0BECF219450E1552A8FED5822B8CF60
:100530000B3211F409A7B4CF0E32C1F5F5010894BE
:10054000A11CB11C04910A3279F4F301A2E0B0E0DD
:100550006A0E7B1E60817181BFEF6F3F7B0714F4D1
:100560006FEF7FEF162F9CCF60E070E0802F8053FD
:100570008A30A0F4CB01F3E0880F991FFA95E1F7D8
:10058000860F971F680F791F600F711D60537040B1
:10059000F5010894A11CB11C0491E8CFEFEF6F3F67
:1005A0007E0714F46FEF7FEF162F7FCF003329F40F
:1005B00054FC76CFF0E25F2A73CF802F81538930CD
:1005C000D8F460E070E0CB01E3E0880F991FEA9572
:1005D000E1F7860F971F680F791F600F711D605339
:1005E0007040F5010894A11CB11C0491802F805328
:1005F0008A3048F3262E59CF083619F424E0522ABF
:100600004FCF0C3619F431E0532A4ACF033661F448
:100610004E010894811C911CF30142E050E0640EED
:10062000751E808189831BC1043421F0043611F0CA
:100630000936B1F5043411F451E0552A50FE0AC0D0
:10064000F30184E090E0680E791E208131814281BF
:1006500053810CC0F30142E050E0640E751E8081AE
:1006600091819C01442737FD4095542F2CA73DA72D
:100670004EA75FA78CA59DA5AEA5BFA5B7FF0DC0D2
:10068000B095A095909581959F4FAF4FBF4F8CA788
:100690009DA7AEA7BFA78DE289A77AE0472E7BC0B2
:1006A0000F3411F00F3639F40F3411F491E0592A58
:1006B00068E0462E6FC00037A1F4F301A2E0B0E07D
:1006C0006A0E7B1E808191819C01442755272CA7AF
:1006D0003DA74EA75FA750E1452E30E4532A08E717
:1006E00059C00337C1F5F30142E050E0640E751EB6
:1006F000808091808114910489F44E010894811CBA
:10070000911C88E289838EE6F401818385E78B83DF
:100710008CE68C838D8389E28E831F8217FD13C044
:10072000812F992787FD9095AC0160E070E0C401AE
:100730000E94EB06009729F0D82ED8181D150CF052
:1007400090C0D12E8EC0F40101900020E9F73197BE
:10075000DE2ED81886C0053511F0053739F4053579
:1007600011F4F1E05F2A4AE0442E14C0083519F074
:10077000083709F06CC030E1432E53FE0BC02CA5A6
:100780003DA54EA55FA5211531054105510511F087
:1007900030E4532A19A618AB17FD02C04FED5422BE
:1007A00029E2822E912C8C0E9D1E8CA59DA5AEA5B6
:1007B000BFA50097A105B10521F498A9992309F4D3
:1007C0003FC0C42CDD24EE24FF2433242CA53DA5FA
:1007D0004EA55FA52C153D054E055F0510F091E077
:1007E000392E6CA57DA58EA59FA5A70196010E9417
:1007F0002F0BDC01CB01182F8A3010F4105D04C0E0
:10080000195A083509F41F7DD4011E934D016CA5BA
:100810007DA58EA59FA5A70196010E942F0B2CA751
:100820003DA74EA75FA7332081F6B8E04B1641F4F1
:1008300053FE06C0103321F080E3F40182934F0190
:10084000CE010196D82ED818F8E2DF0E0BC0002397
:1008500009F44EC04E010894811C911C098381E06B
:10086000D82E19A61D2DC8A8CD18C7FCCC2489A543
:10087000882311F01F5F02C056FC1E5F1C0DE52C83
:10088000FF24C70180739070892B21F4822D811B76
:100890000E94F50189A5882329F061E070E0CE016E
:1008A000899609C0E6FE09C080E38AA70BA762E02B
:1008B00070E0CE018A960E94CC01C70180739070CF
:1008C000809721F4822D811B0E9401028C2D0E94B1
:1008D00001028D2D992787FD9095BC01C4010E94CE
:1008E000CC01E4FEC1CD822D811B0E94F501BCCD5F
:1008F000E0960FB6F894DEBF0FBECDBFDF91CF916B
:100900001F910F91FF90EF90DF90CF90BF90AF902D
:100910009F908F907F906F905F904F903F902F901F
:1009200008951F920F920FB60F9211248F939F93E9
:1009300082B78D5782BF809182009091830001968B
:1009400090938300809382009F918F910F900FBEB0
:100950000F901F90189583E083BF83E882BF1CBE71
:1009600089B7816089BF089520918200309183000A
:10097000820F931F08952091820030918300821B83
:10098000930B892F9927807899270895CF93DF9328
:100990000E94B404EC01CE010E94BB048823D9F369
:1009A000DF91CF91089582E390E00E94B404909388
:1009B0008500809384000895CF93C0E080918400E7
:1009C000909185000E94BB04882309F476C0CF9BD8
:1009D00012C0809186008F5F80938600813011F075
:1009E0008A3009F4C1E0809186008A3031F487E0D2
:1009F0008093860002C0C0938600CE9B12C0809177
:100A000087008F5F80938700813011F08A3009F46E
:100A1000C260809187008A3031F487E0809387003C
:100A200002C010928700CD9B12C0809188008F5F1A
:100A300080938800813011F08A3009F4C46080917D
:100A400088008A3031F487E08093880002C01092D9
:100A50008800CC9B12C0809189008F5F80938900B1
:100A6000813011F08A3009F4C860809189008A30A1
:100A700031F487E08093890002C010928900CB9BFB
:100A800012C080918A008F5F80938A00813011F0BC
:100A90008A3009F4C06180918A008A3031F487E09D
:100AA00080938A0002C010928A0082E390E00E9444
:100AB000B40490938500809384008C2F9927CF9164
:100AC00008950F931F93CF93DF93C82FDD27C0FFA7
:100AD0000FC080918F00882311F0815002C0809157
:100AE000750080938F0081E00E940B010E94F3004B
:100AF000CE01969587958C010170107080FF0AC019
:100B000080918F008F5F80938F0081E00E940B01A6
:100B10000E94F300C0FF04C0012B11F010928F005F
:100B200060E08DE00E947F0180918F0099279F9364
:100B30008F9384E590E09F938F930E940D020F9016
:100B40000F900F900F9020918F00822F9927813066
:100B5000910539F1823091051CF4892B49F0EBC0E5
:100B60008230910509F45AC0039709F48EC0E3C09E
:100B700060E0862F0E947F0189E590E09F938F932C
:100B80000E940D0261E080E00E947F010F900F90B3
:100B900084E690E09F938F930E940D020F900F9038
:100BA000CFC060E0862F0E947F0180E790E09F9396
:100BB0008F930E940D0261E080E00E947F010F9000
:100BC0000F9080917D0099279F938F9380917C0057
:100BD00099279F938F9385E790E09F938F930E942F
:100BE0000D028DB79EB706960FB6F8949EBF0FBE46
:100BF0008DBFC2FF07C080917C00882319F081500F
:100C000080937C00C3FF05C080917C008F5F809340
:100C10007C00C4FF95C010927D0092C060E0862FDA
:100C20000E947F018EE790E09F938F930E940D02B8
:100C300061E080E00E947F010F900F9080918B0017
:100C400090918C009F938F938BE890E09F938F936C
:100C50000E940D020F900F900F900F90C2FF09C0DD
:100C600080918B0090918C00019790938C008093E1
:100C70008B00C3FF65C080918B0090918C00019622
:100C800090938C0080938B005BC060E0862F0E9465
:100C90007F0187E990E09F938F930E940D0261E0AE
:100CA00080E00E947F010F900F90E0918D00F09105
:100CB0008E00E559FF4F808199279F938F938091F4
:100CC0008D0090918E009F938F9381EA90E09F9387
:100CD0008F930E940D028DB79EB706960FB6F894BB
:100CE0009EBF0FBE8DBFC4FF0FC080918D0090913D
:100CF0008E00019690938E0080938D000A9721F4C8
:100D000010928E0010928D00C2FF09C0E0918D00FC
:100D1000F0918E00E559FF4F808181508083C3FFA1
:100D20000FC0E0918D00F0918E00E559FF4F80815A
:100D30008F5F808305C021502093750010928F0033
:100D4000DF91CF911F910F9108950F931F93CF9330
:100D5000DF938C01EB010097B9F16CE070E081E06A
:100D600090E00E94C309FC01009781F1209771F087
:100D7000C287D38721E02383A0919400B09195008E
:100D8000AB2B21F4909395008093940001151105ED
:100D9000C9F000871187038102600383A091960048
:100DA000B0919700AB2B71F4F0939700E09396000D
:100DB000C0919800D0919900CD2B21F4F093990027
:100DC000E0939800CF0102C0672B39F6DF91CF91F5
:100DD0001F910F910895FC014150504038F001904F
:100DE0000616D1F731978E2F9F2F089588279927C0
:100DF0000895CF93DF93CDB7DEB7A5E0B0E0AC0F99
:100E0000BD1F2D913D91AD01B9018091960090914A
:100E100097000E940E07DF91CF9108952F923F9285
:100E20004F925F926F927F928F929F92AF92BF92FA
:100E3000CF92DF92EF92FF920F931F93CF93DF93A6
:100E4000CDB7DEB762970FB6F894DEBF0FBECDBF49
:100E5000AA24BB2465014C016D877E874F87588B80
:100E600044245524FC0146825782838181FD5BC264
:100E70008FEF9FEF6FC240FE44C2862D80538A30B1
:100E8000E0F4F0E36F1641F42A89222329F4772055
:100E900019F480E091E08BC08AE09A89989F902DA8
:100EA0001124892F860D80538A8B882314F4EFE751
:100EB000EA8B43FC38C27A8836C243FE05C0FA8901
:100EC000FF2311F421E02A8B862D992787FD909529
:100ED0008836910554F5853691050CF06BC0883540
:100EE000910509F4D3C089359105B4F48B3291058D
:100EF00009F442C08C32910544F48032910509F422
:100F00003FC0839709F442C0F2C18D329105D9F1F7
:100F10008E9709F440C0EBC18336910509F454C0A3
:100F20008436910509F478C0E2C18037910509F44F
:100F3000A5C08137910584F48C369105B1F18D36C9
:100F400091052CF48936910509F466C0D0C18F361D
:100F5000910509F490C0CBC18537910509F498C07B
:100F60008637910524F483379105B9F1C0C18837DC
:100F7000910509F48BC0BBC180E190E0482A592A51
:100F8000E0E2F0E005C080E890E011C0E0E4F0E0CD
:100F90004E2A5F2AC8C188E090E0482A592AEFEF1C
:100FA000FEEF4E225F221A8ABEC184E090E0482AFA
:100FB000592AB9C10F2EFFE3AF2EF02D7A940F2ED0
:100FC000F3E66F2EF02D3AC1EF85F889CF01029636
:100FD0008F87988BA0807A9431C1EF85F889CF01F3
:100FE00002968F87988BA080B18043FE0BC0EA8960
:100FF0008E2F992787FD9095BC01C5010E94240B77
:10100000898B07C0F50101900020E9F73197EA19B3
:10101000E98BF9897F1A12C142FE0BC0EF85F8896E
:10102000CF0104968F87988B208131814281538133
:101030000DC0EF85F889CF0102968F87988B80814C
:1010400091819C01442737FD4095542F59016A0135
:10105000552364F4E2E0F0E04E2A5F2AD094C09475
:10106000B094A094A11CB11CC11CD11C8FEB9FEFAC
:10107000482259222BC098E0998B0AC0E0E4F0E0A6
:101080004E2A5F2A0F2EF8E76F2EF02DF0E1F98B34
:1010900042FE0BC0EF85F889CF0104968F87988BAD
:1010A00020813181428153810BC0EF85F889CF01C6
:1010B00002968F87988B808191819C0144275527C8
:1010C00059016A01EFECFFEF4E225F221E010894E6
:1010D000211C311CF989EF2EFF2400271127C6019E
:1010E000B501A80197010E942F0BDC01CB01F10192
:1010F00080838A301CF0860D815203C0F10180810B
:10110000805DF10181931F01C601B501A80197011E
:101110000E942F0B59016A01211531054105510526
:10112000F1F6CE010196A22CA81AC201827390702A
:10113000892B09F07A9446FE0FC0872D992787FDE9
:101140009095F989F03131F40F2EFEEF7F2EF02DBE
:10115000780E02C0782E7A9443FE12C08A89282F16
:10116000332727FD30958A2D9927821793072CF076
:10117000E7EFFFEF4E225F2203C0FA89FA19FA8BDC
:1011800043FE03C02A89721A01C07A18C20180780E
:101190009170892B69F4872D7A9418164CF4B40158
:1011A00080E290E00E94DF09872D7A941816BCF344
:1011B00041FE04C0B4018DE290E00BC044FE04C0C7
:1011C000B4018BE290E005C045FE05C0B40180E2A9
:1011D00090E00E94DF0946FE0FC0B40180E390E07A
:1011E0000E94DF098989803139F4862D992787FD8E
:1011F0009095B4010E94DF0950FE0DC0872D7A94AE
:1012000018164CF4B40180E390E00E94DF09872DAA
:101210007A941816BCF343FE11C08A89982F915016
:101220009A8B18165CF4B40180E390E00E94DF0909
:101230008A89E82FE150EA8B1816ACF3842D807868
:1012400069F4872D7A9418164CF4B40180E290E08A
:101250000E94DF09872D7A941816BCF3F3E66F1607
:1012600041F48A2D992787FD9095B4010E94DF09EA
:101270002DC023E76216B1F489898150898B8F3F95
:1012800029F1F5018081992787FD90950894A11C8B
:10129000B11CB4010E94DF0999899150998B9F3F3D
:1012A00081F714C0CE0101962816390679F08E0117
:1012B0000F5F1F4FF10182911F01992787FD9095C4
:1012C000B4010E94DF0920163106A1F7842D807831
:1012D000A9F0872D7A9418168CF4B40180E290E07E
:1012E0000E94DF09872D7A941816BCF307C0862D5B
:1012F000992787FD9095B4010E94DF094424552465
:1013000012C0F5E26F1641F44424552443941A8A1E
:101310007A882AE0298B07C0862D992787FD90952A
:10132000B4010E94DF09F401838183FF08C0ED85C9
:10133000FE85CF0101968D879E87649005C0ED855F
:10134000FE856190ED87FE87662009F094CDF4015B
:101350008681978162960FB6F894DEBF0FBECDBF2F
:10136000DF91CF911F910F91FF90EF90DF90CF9081
:10137000BF90AF909F908F907F906F905F904F90B5
:101380003F902F9008950F931F93CF93DF93869FE5
:101390008001879F100D969F100D1124C8010E9497
:1013A000120AEC01009731F0A80160E070E00E94A1
:1013B0001D0BCE01DF91CF911F910F9108950F93D7
:1013C0001F93CF93DF938C01EB018B81992781FFD2
:1013D00022C082FF14C02E813F814C815D81241781
:1013E00035073CF4A881B9810D93A883B9832E8178
:1013F0003F812F5F3F4F2E833F83C8010EC0E8859A
:10140000F985802F0995892B31F4EE81FF81319682
:10141000EE83FF83F2CF8FEF9FEFDF91CF911F918C
:101420000F910895CF93DF939C01029710F422E06F
:1014300030E040E050E0E0919200F0919300BF0175
:10144000DA013097B1F0808191818217930709F416
:1014500085C02817390738F44115510519F084174C
:10146000950708F4AC01DF010280F381E02D30978D
:1014700051F741155105B9F0DA01A21BB30B1497CE
:1014800008F49A01FB01A0E0B0E0672B61F06081F5
:1014900071816417750709F43FC0DF010280F38191
:1014A000E02D3097A1F740919000509191004115A7
:1014B000510541F44091780050917900509391008A
:1014C00040939000A0917A00B0917B001097D9F0E2
:1014D000FA01BD01641B750B6217730788F0D9010F
:1014E00012966A177B0760F0420F531F4E5F5F4FE3
:1014F000509391004093900021933193CF0137C0D6
:1015000080E090E034C0ADB7BEB7E0917600F091D6
:101510007700AE1BBF0BDCCF2417350769F0421BE9
:10152000530BEF01C40FD51F2993399342505040FC
:1015300040835183CE011BC0109749F02281338133
:1015400012962D933C931397CF01029610C04281BF
:1015500053815093930040939200F6CF109771F708
:10156000228133813093930020939200EDCFDF915D
:10157000CF910895CF93DF93009709F45BC0DC010E
:10158000129712961D921C9213978091920090913F
:1015900093000097D1F1FC0140E050E0EA17FB070F
:1015A00010F5AF010280F381E02D3097B9F7EA0121
:1015B000AA83BB83FA01329628813981E20FF31F97
:1015C000EA17FB07B9F56D917C911197260F371F2C
:1015D0002E5F3F4F2883398312964D915C9113976C
:1015E0004A835B8327C0ED011296ED93FC9313971A
:1015F0002D913C911197C20FD31FCE0102968E17E9
:101600009F0741F04115510591F6B0939300A093C7
:10161000920010C06A817B81260F371F2E5F3F4FDB
:101620002D933C9311972281338112962D933C93F5
:101630001397E8CFDF91CF910895DC0101C06D933E
:1016400041505040E0F70895FC0161507040019016
:101650000110D8F7809590958E0F9F1F0895A1E2F5
:101660001A2EAA1BBB1BFD010DC0AA1FBB1FEE1F1C
:10167000FF1FA217B307E407F50720F0A21BB30B67
:10168000E40BF50B661F771F881F991F1A9469F7E3
:1016900060957095809590959B01AC01BD01CF013F
:0216A0000895AB
:1016A2004D6F696E004D6F696E0D000102030405F6
:0C16B200060708090A0320009A00000047
:00000001FF
