:100000000C94B5000C94D0000C94D0000C94D0004B
:100010000C94D0000C94D0000C9486050C94D00065
:100020000C94D0000C945A060C94D0000C946B06DF
:100030000C94D0000C94D0000C94D0000C94D00000
:100040000C94D0000C94D0000C94D0000C94D000F0
:100050000C94D0005A656974776161676500486FD8
:100060006C6765722042757373004D6573737A65B2
:100070006974002533693A253032693A253032698E
:1000800020005469636B733A25356C750073656B9A
:100090003D25396C757573004B75727A6D69747492
:1000A000656C0073656B3D25396C7575730054691B
:1000B000636B733A25356C75002534692E256920EC
:1000C00073656B2F54616720004B75727A6D69748C
:1000D00074656C002534692073656B2F546167204B
:1000E000004F6B61793A25356C75205469636B73E9
:1000F000004665686C65723A25346C752000416E67
:100100007A61686C205469636B73002532692070D2
:10011000726F2025326973656B005469636B7320BD
:100120005A6569746261736973002532692070725F
:100130006F2025326973656B0053656E736F72743F
:100140006F6C6572616E7A0020202532752F313018
:1001500030302000446966663A25357520004D69C7
:100160007474656C3A253575200011241FBECFE5E7
:10017000D8E0DEBFCDBF10E0A0E6B0E0E8E8F8E2EE
:1001800002C005900D92A038B107D9F710E0A0E8A1
:10019000B0E001C01D92AB3CB107E1F70C947201D5
:1001A0000C94000088EE93E00E94950690938600E0
:1001B00080938500089580918500909186000E942B
:1001C0009C06882309F180918500909186008851D2
:1001D0009C4F9093860080938500809182008F5F72
:1001E000809382008C3381F4109282008091810090
:1001F0008F5F809381008C3339F4809180008F5F12
:1002000080938000109281000895089548B340784B
:10021000E091890020916F00309170008E2F992716
:10022000B9010E94FB13892B09F44062E3704E0F61
:1002300048BB08951F93CF932091B9003091BA0025
:10024000C90162E370E00E940F146159714014F01B
:1002500010E511C0C90162E370E00E940F146057FD
:100260007E4F14F410E007C0C90162E370E00E9401
:100270000F14162F185D80E690E09F938F930E94D5
:10028000F40DC0E00F900F90C83229F4183229F015
:100290008CE790E007C0C11719F48AE290E002C031
:1002A00080E290E00E94090ECF5FC03568F38BE2D8
:1002B00090E00E94090E8091B9009091BA006AE026
:1002C00070E00E940F147F936F9383E690E09F93FA
:1002D0008F930E94F40D0F900F900F900F90CF917D
:1002E0001F910895CAE5D8E0DEBFCDBF85E0A8E63E
:1002F000B0E0FE0131960D9001928A95E1F7FF245E
:100300000E94E6010E94E6010E9485060E948E0678
:100310000E94B4060E94D20088EB9BE00E949506E2
:100320008C0178948FEF87BB18BA80E991E00E9426
:10033000A7060E943E0284E690E00E94A70681E0A4
:100340000E9400020E94F3010E9445090E94BD061E
:100350000E94BF0A85E090E00E94A7060E94060165
:100360000E94DB00C8010E949C068823D1F088EE21
:1003700093E00E9495068C010E9442070E94AE09FC
:10038000F3942F2D332780917100909172002817DC
:10039000390738F00E945B080E94BA080E941A01CF
:1003A000FF2480918A00882389F210928A00CECFA0
:1003B000CF93C82F8A3019F48DE00E94D8015D9B3D
:1003C000FECFCCB980E090E0CF91089588E08AB963
:1003D0008CE089B940E050E0BA0188ED91E00E94DC
:1003E0009D0D949A089585E090E00E94A7060895D7
:1003F00084EF91E003972FEF8F3F9207D9F708958D
:10040000282F807F982F946095BB95BB85BB85BBBB
:10041000822F992734E0880F991F3A95E1F784607D
:1004200085BB85BB2295207F25BB0895282F3327C8
:1004300044E0220F331F4A95E1F7922F946095BB59
:1004400095BB8295807F85BB0895282F807F982F4C
:10045000956095BB816085BB822F992754E0880FFA
:10046000991F5A95E1F7282F256025BB816085BB30
:1004700008950E94250281E090E008958FEF84BBEB
:100480000E94F3010E94F3010E94F30183E00E94A5
:1004900016020E94F30183E00E9416020E94F301FB
:1004A00083E00E9416020E94F30182E00E9416027D
:1004B0000E94F30188E20E9400020E94F30188E09A
:1004C0000E9400020E94F30181E00E9400020E944B
:1004D000F30186E00E9400020E94F3018CE00E947A
:1004E00000020E94F30108951F93CF93C82F162F87
:1004F0000E94F801812F99278130910579F082308F
:1005000091051CF4892B39F013C08230910549F014
:10051000039751F00DC08C2F805808C08C2F805449
:1005200005C08C2F8C5602C08C2F8C520E9400026A
:10053000CF911F9108951F93CF93DF93EC0110E0AB
:100540008881882379F0FE01E10FF11D1F5F808112
:100550000E9425020E94F301FE01E10FF11D80813E
:10056000882389F7DF91CF911F9108951F93182F4A
:100570000E94F801812F0E94250281E090E01F91E6
:1005800008950F931F93CF93DF938C01EB01672B9B
:1005900039F0F80181918F010E94B6022197C9F7C5
:1005A000DF91CF911F910F9108950F931F93CF93D8
:1005B000DF938C01EB01672B41F0F8010F5F1F4FB8
:1005C00084910E94B6022197C1F7DF91CF911F91CC
:1005D0000F910895CF93C82F181634F480E20E942B
:1005E000B602C1501C16D4F3CF910895CF93C82FF3
:1005F000181634F480E30E94B602C1501C16D4F3DE
:10060000CF9108952F923F924F925F926F927F9277
:100610008F929F92AF92BF92CF92DF92EF92FF9212
:100620000F931F93CF93DF93CDB7DEB7E0970FB64D
:10063000F894DEBF0FBECDBFA5E46A2E712C6C0E00
:100640007D1E1CA61DA61EA61FA6D301AD90BD90A3
:100650003D01C50105C0053239F00894A11CB11C4B
:10066000F50104910023B9F7B501681B790B11F06E
:100670000E94D502002309F430C20894A11CB11CC9
:10068000552458AA252C1FEF59A6F5010894A11C42
:10069000B11C0491053721F0802F80628837F1F476
:1006A00050FE0EC0F30124E030E0620E731E808124
:1006B0009181A281B3818CA79DA7AEA7BFA70EC0D1
:1006C000F301A2E0B0E06A0E7B1E808191819C0163
:1006D000442755272CA73DA74EA75FA7003221F43A
:1006E00089A5882391F61BC0033211F438E081C03C
:1006F0000A3211F00D3289F40A3251F4F30142E06A
:1007000050E0640E751E208022200CF0BECF219494
:1007100050E1552A8FED5822B8CF0B3211F409A7BA
:10072000B4CF0E32C1F5F5010894A11CB11C04919F
:100730000A3279F4F301A2E0B0E06A0E7B1E608118
:100740007181BFEF6F3F7B0714F46FEF7FEF162FC0
:100750009CCF60E070E0802F80538A30A0F4CB0102
:10076000F3E0880F991FFA95E1F7860F971F680F3E
:10077000791F600F711D60537040F5010894A11C32
:10078000B11C0491E8CFEFEF6F3F7E0714F46FEFD9
:100790007FEF162F7FCF003329F454FC76CFF0E2A1
:1007A0005F2A73CF802F81538930D8F460E070E0E6
:1007B000CB01E3E0880F991FEA95E1F7860F971FB9
:1007C000680F791F600F711D60537040F501089428
:1007D000A11CB11C0491802F80538A3048F3262E2F
:1007E00059CF083619F424E0522A4FCF0C3619F4A9
:1007F00031E0532A4ACF033661F44E010894811C3C
:10080000911CF30142E050E0640E751E80818983E3
:100810001BC1043421F0043611F00936B1F504345B
:1008200011F451E0552A50FE0AC0F30184E090E033
:10083000680E791E20813181428153810CC0F30101
:1008400042E050E0640E751E808191819C01442736
:1008500037FD4095542F2CA73DA74EA75FA78CA529
:100860009DA5AEA5BFA5B7FF0DC0B095A09590956D
:1008700081959F4FAF4FBF4F8CA79DA7AEA7BFA736
:100880008DE289A77AE0472E7BC00F3411F00F3636
:1008900039F40F3411F491E0592A68E0462E6FC004
:1008A0000037A1F4F301A2E0B0E06A0E7B1E808164
:1008B00091819C01442755272CA73DA74EA75FA7F0
:1008C00050E1452E30E4532A08E759C00337C1F5FB
:1008D000F30142E050E0640E751E80809180811427
:1008E000910489F44E010894811C911C88E289834B
:1008F0008EE6F401818385E78B838CE68C838D8380
:1009000089E28E831F8217FD13C0812F992787FDEF
:100910009095AC0160E070E0C4010E94E60D009784
:1009200029F0D82ED8181D150CF090C0D12E8EC0ED
:10093000F40101900020E9F73197DE2ED81886C027
:10094000053511F0053739F4053511F4F1E05F2A6A
:100950004AE0442E14C0083519F0083709F06CC07D
:1009600030E1432E53FE0BC02CA53DA54EA55FA53F
:10097000211531054105510511F030E4532A19A61E
:1009800018AB17FD02C04FED542229E2822E912CA4
:100990008C0E9D1E8CA59DA5AEA5BFA50097A1059B
:1009A000B10521F498A9992309F43FC0C42CDD2492
:1009B000EE24FF2433242CA53DA54EA55FA52C15C0
:1009C0003D054E055F0510F091E0392E6CA57DA523
:1009D0008EA59FA5A70196010E942214DC01CB01E0
:1009E000182F8A3010F4105D04C0195A083509F424
:1009F0001F7DD4011E934D016CA57DA58EA59FA5DD
:100A0000A70196010E9422142CA73DA74EA75FA71D
:100A1000332081F6B8E04B1641F453FE06C0103384
:100A200021F080E3F40182934F01CE010196D82E8C
:100A3000D818F8E2DF0E0BC0002309F44EC04E01B7
:100A40000894811C911C098381E0D82E19A61D2DC4
:100A5000C8A8CD18C7FCCC2489A5882311F01F5F36
:100A600002C056FC1E5F1C0DE52CFF24C7018073DD
:100A70009070892B21F4822D811B0E94EA0289A5A6
:100A8000882329F061E070E0CE01899609C0E6FE76
:100A900009C080E38AA70BA762E070E0CE018A96C6
:100AA0000E94C102C70180739070809721F4822D4B
:100AB000811B0E94F6028C2D0E94F6028D2D992733
:100AC00087FD9095BC01C4010E94C102E4FEC1CD26
:100AD000822D811B0E94EA02BCCDE0960FB6F894ED
:100AE000DEBF0FBECDBFDF91CF911F910F91FF9061
:100AF000EF90DF90CF90BF90AF909F908F907F90BE
:100B00006F905F904F903F902F9008951F920F929B
:100B10000FB60F921124EF92FF920F931F932F9312
:100B20003F934F935F936F937F938F939F93AF9375
:100B3000BF9326B537B58091A5009091A600B90165
:100B4000681B790B80917500909176008617970746
:100B500008F099C03093A6002093A50070939E00E2
:100B600060939D00809173009091740068177907DD
:100B700008F074C0E0909100F09092000091930012
:100B8000109194009B0144275527809191009091EA
:100B90009200A0919300B0919400820F931FA41F24
:100BA000B51F8093910090939200A0939300B0930F
:100BB00094008091910090919200A0919300B09147
:100BC00094008E159F05A007B10748F480918F000F
:100BD0009091900001969093900080938F00809167
:100BE000950090919600A0919700B0919800019681
:100BF000A11DB11D8093950090939600A09397003E
:100C0000B093980081E080938A00809189008F5F83
:100C1000809389004091A7005091A800460F571F6C
:100C20005093A8004093A7008091A9008F5F809304
:100C3000A900282F332780916F009091700028170A
:100C4000390751F450938800409387001092A80010
:100C50001092A7001092A900C79819C080918B002C
:100C600090918C00A0918D00B0918E000196A11DF5
:100C7000B11D80938B0090938C00A0938D00B09356
:100C80008E00C79A04C070939C0060939B00BF9134
:100C9000AF919F918F917F916F915F914F913F9114
:100CA0002F911F910F91FF90EF900F900FBE0F901B
:100CB0001F9018951F920F920FB60F9211248F93C9
:100CC00080919F008F5F80939F008F910F900FBE48
:100CD0000F901F9018951F920F920FB60F9211242C
:100CE0008F939F9382B78D5782BF8091A30090917D
:100CF000A40001969093A4008093A3009F918F91EC
:100D00000F900FBE0F901F90189583E083BF83E86C
:100D100082BF1CBE89B7816089BF0895479A85EC60
:100D20008EBD89B7846289BF08952091A300309158
:100D3000A400820F931F08952091A3003091A40076
:100D4000821B930B892F9927807899270895CF9339
:100D5000DF930E949506EC01CE010E949C06882339
:100D6000D9F3DF91CF91089582E390E00E94950638
:100D70009093AB008093AA000895CF93C0E0809138
:100D8000AA009091AB000E949C06882309F476C0CB
:100D9000CF9B12C08091AC008F5F8093AC008130FC
:100DA00011F08A3009F4C1E08091AC008A3031F44E
:100DB00087E08093AC0002C0C093AC00CE9B12C011
:100DC0008091AD008F5F8093AD00813011F08A304B
:100DD00009F4C2608091AD008A3031F487E08093DD
:100DE000AD0002C01092AD00CD9B12C08091AE004C
:100DF0008F5F8093AE00813011F08A3009F4C460B7
:100E00008091AE008A3031F487E08093AE0002C05A
:100E10001092AE00CC9B12C08091AF008F5F809388
:100E2000AF00813011F08A3009F4C8608091AF00C2
:100E30008A3031F487E08093AF0002C01092AF0097
:100E4000CB9B12C08091B0008F5F8093B000813047
:100E500011F08A3009F4C0618091B0008A3031F419
:100E600087E08093B00002C01092B00082E390E06F
:100E70000E9495069093AB008093AA008C2F99272F
:100E8000CF910895CF92DF92EF92FF920F931F932D
:100E900020919100309192004091930050919400E4
:100EA00057FD05C0CA01B9010E94411316C0DA01FD
:100EB000C90181709070A070B070569547953795B4
:100EC0002795822B932BA42BB52BBC01CD010E941F
:100ED00041139B01AC010E9494126B017C010091B3
:100EE0008F0010919000C801AA2797FDA095BA2FF6
:100EF000BC01CD010E94411317FF06C020E030E085
:100F000040E857E40E94941220E03EEF4FE75FE490
:100F10000E948E13DC01CB019C01AD01C701B6011B
:100F20000E94941220E030EC48EA57E40E948E13AD
:100F300020E030E040E850E40E948E136B017C0119
:100F400000916F0010917000C801AA2797FDA0952D
:100F5000BA2FBC01CD010E94411317FF06C020E04B
:100F600030E040E857E40E9494129B01AC01C701B5
:100F7000B6010E948E1320E030E543E455E40E9460
:100F8000DE126B017C010091710010917200C801AA
:100F9000AA2797FDA095BA2FBC01CD010E9441134D
:100FA00017FF06C020E030E040E857E40E949412AA
:100FB0009B01AC01C701B6010E94DE126B017C01EE
:100FC00020919500309196004091970050919800A3
:100FD00057FD05C0CA01B9010E94411316C0DA01CC
:100FE000C90181709070A070B07056954795379583
:100FF0002795822B932BA42BB52BBC01CD010E94EE
:1010000041139B01AC010E9494129B01AC01C701EA
:10101000B6010E94DE129B01AC0160E070EF82E538
:1010200099E40E9493126B017C012091BB003091E6
:10103000BC00C901880F991F820F931FAA2797FD33
:10104000A095BA2FBC01CD010E944113DC01CB0158
:10105000A7019601BC01CD010E949412DC01CB01D5
:1010600020E030E040E85EE3BC01CD010E948E1339
:10107000DC01CB01BC01CD010E942413DC01CB01BA
:101080009093BC008093BB00809195009091960056
:10109000A0919700B09198000597A105B10520F4A3
:1010A0001092BC001092BB001F910F91FF90EF9027
:1010B000DF90CF900895CF92DF92EF92FF920F933F
:1010C0001F930091870010918800C801AA2797FDFF
:1010D000A095BA2FBC01CD010E9441136B017C0188
:1010E00017FF08C020E030E040E857E40E94941267
:1010F0006B017C0120E030E543EC57E4C701B60109
:101100000E948E1320E030E040E850E40E948E13ED
:1011100020E030E543E455E40E94DE126B017C01DF
:101120000091710010917200C801AA2797FDA09547
:10113000BA2FBC01CD010E94411317FF06C020E069
:1011400030E040E857E40E9494129B01AC01C701D3
:10115000B6010E94DE126093B1007093B2008093DA
:10116000B3009093B4001F910F91FF90EF90DF9028
:10117000CF900895CF92DF92EF92FF920F931F933B
:101180000091870010918800C801AA2797FDA095BB
:10119000BA2FBC01CD010E9441136B017C0117FFE6
:1011A00008C020E030E040E857E40E9494126B0150
:1011B0007C0120E030EC48EA57E4C701B6010E9408
:1011C0008E1320E030E040E850E40E948E1320E0CF
:1011D00030E543E455E40E94DE126B017C0100918E
:1011E000710010917200C801AA2797FDA095BA2F2F
:1011F000BC01CD010E94411317FF06C020E030E082
:1012000040E857E40E9494129B01AC01C701B6016B
:101210000E94DE129B01AC0160E070EF82E599E470
:101220000E9493126B017C018091B9009091BA00E9
:10123000AA2797FDA095BA2FBC01CD010E944113AA
:10124000DC01CB01A7019601BC01CD010E949412E3
:10125000DC01CB0120E030E040E05FE3BC01CD01E8
:101260000E948E13DC01CB01BC01CD010E9424132E
:10127000DC01CB019093BA008093B9001F910F91CC
:10128000FF90EF90DF90CF9008956F927F928F92B2
:101290009F92AF92BF92CF92DF92EF92FF920F9305
:1012A0001F93CF93DF93A4E8BEE1C0E0D0E080912C
:1012B0007100909172009C0144275527BD01CE0119
:1012C0000E94DC13EC01DB0180916F0090917000B3
:1012D0009C0144275527BD01CE010E9422147901AB
:1012E0008A0180916D0090916E009C0144275527E2
:1012F000C801B7010E94DC135B016C01E8EE6E2EA1
:10130000E3E07E2E812C912CA40193010E942214F3
:10131000DA01C9019701281B390B3093760020931D
:101320007500C601B501A40193010E942214DA01DF
:10133000C9018E0D9F1D9093740080937300DF91FF
:10134000CF911F910F91FF90EF90DF90CF90BF90C2
:10135000AF909F908F907F906F900895CF92DF9283
:10136000EF92FF920F931F93209191003091920082
:10137000409193005091940057FD05C0CA01B901F6
:101380000E94411316C0DA01C90181709070A070EB
:10139000B0705695479537952795822B932BA42BA4
:1013A000B52BBC01CD010E9441139B01AC010E94F1
:1013B00094126B017C0100918F0010919000C80184
:1013C000AA2797FDA095BA2FBC01CD010E94411319
:1013D00017FF06C020E030E040E857E40E94941276
:1013E00020E03EEF4FE75FE40E948E13DC01CB016B
:1013F0009C01AD01C701B6010E9494126B017C01F2
:1014000000916F0010917000C801AA2797FDA09568
:10141000BA2FBC01CD010E94411317FF06C020E086
:1014200030E040E857E40E9494129B01AC01C701F0
:10143000B6010E948E1320E030E543EC57E40E9491
:101440008E1320E030E040E850E40E948E1320E04C
:1014500030E543E455E40E94DE126B017C0100910B
:10146000710010917200C801AA2797FDA095BA2FAC
:10147000BC01CD010E94411317FF06C020E030E0FF
:1014800040E857E40E9494129B01AC01C701B601E9
:101490000E94DE126B017C01209195003091960034
:1014A000409197005091980057FD05C0CA01B901BD
:1014B0000E94411316C0DA01C90181709070A070BA
:1014C000B0705695479537952795822B932BA42B73
:1014D000B52BBC01CD010E9441139B01AC010E94C0
:1014E00094129B01AC01C701B6010E94DE12609309
:1014F000B5007093B6008093B7009093B8001F9129
:101500000F91FF90EF90DF90CF9008951092A2007E
:101510001092A1001092A00010929F0010929E00C5
:1015200010929D0010929C0010929B0010929A00C5
:1015300010929900109295001092960010929700C8
:1015400010929800109291001092920010929300C5
:10155000109294001092900010928F0010928100CF
:10156000109282001092800010928B0010928C00DA
:1015700010928D0010928E00109289000895FF92B3
:101580000F931F93CF93DF93F82E082F112700FF9F
:101590000FC080917800882311F0815002C08091A3
:1015A00077008093780081E00E9400020E94F3019E
:1015B000C80196958795EC01C170D07080FF0AC074
:1015C000809178008F5F8093780081E00E94000214
:1015D0000E94F30100FF04C0CD2B11F0109278009F
:1015E00020917800822F99278530910509F439C11F
:1015F00086309105A4F48230910509F470C08330DF
:1016000091052CF4009711F10197C9F18BC2833039
:10161000910509F4A9C0049709F4D7C083C28830A2
:10162000910509F4CDC18930910544F486309105C6
:1016300009F43EC1079709F47CC174C28930910551
:1016400009F405C20A9709F444C26CC260E0862F0F
:101650000E94740284E590E09F938F930E9402039E
:1016600061E080E00E9474020F900F908EE590E0A0
:101670009F938F930E9402030F900F9058C260E0D7
:10168000862F0E9474028AE690E09F938F930E94B7
:10169000020361E080E00E9474020F900F9080913D
:1016A000820099279F938F938091810099279F9320
:1016B0008F938091800099279F938F9383E790E089
:1016C0009F938F930E9402038DB79EB708960FB623
:1016D000F8949EBF0FBE8DBF04FF29C227C160E0F2
:1016E000862F0E9474028091950090919600A0919F
:1016F0009700B0919800BF93AF939F938F9382E828
:1017000090E09F938F930E94020361E080E00E942B
:1017100074028DB79EB706960FB6F8949EBF0FBEA3
:101720008DBF8091B5009091B600A091B700B091A7
:10173000B800BC01CD010E942413DC01CB01BF9392
:10174000AF939F938F938DE890E09F938F930E9428
:1017500002038DB79EB706960FB6F8949EBF0FBED4
:101760008DBF04FFE4C1E2C060E0862F0E947402D6
:1017700088E990E09F938F930E94020361E080E0EC
:101780000E9474020F900F908091B1009091B2006E
:10179000A091B300B091B400BC01CD010E9424130C
:1017A000DC01CB01BF93AF939F938F9383EA90E0CB
:1017B0009F938F930E9402038DB79EB706960FB634
:1017C000F8949EBF0FBE8DBFB2C160E0862F0E940D
:1017D00074028091950090919600A0919700B0912D
:1017E0009800BF93AF939F938F938EEA90E09F935F
:1017F0008F930E94020361E080E00E9474028DB723
:101800009EB706960FB6F8949EBF0FBE8DBF80910F
:10181000BB009091BC0097FF03C0909581959F4FAE
:101820006AE070E00E940F149F938F938091BB0039
:101830009091BC006AE070E00E940F147F936F9358
:1018400089EB90E09F938F930E9402038DB79EB720
:1018500006960FB6F8949EBF0FBE8DBF04FF67C1FA
:1018600065C060E0862F0E94740289EC90E09F932F
:101870008F930E94020361E080E00E9474020F9047
:101880000F908091B9009091BA006AE070E00E94D8
:101890000F147F936F9384ED90E09F938F930E943A
:1018A00002030F900F900F900F9004FF40C13EC0B5
:1018B00060E0862F0E9474028091950090919600BE
:1018C000A0919700B0919800BF93AF939F938F938F
:1018D00081EE90E09F938F930E94020361E080E08D
:1018E0000E9474028DB79EB706960FB6F8949EBFFD
:1018F0000FBE8DBF80918B0090918C00A0918D00C8
:10190000B0918E00BF93AF939F938F9381EF90E040
:101910009F938F930E9402038DB79EB706960FB6D2
:10192000F8949EBF0FBE8DBF04FF01C10E94860ABE
:10193000FEC060E0862F0E9474028EEF90E09F93BD
:101940008F930E94020361E080E00E9474020F9076
:101950000F9080917100909172009F938F9380916E
:101960006F00909170009F938F938BE091E09F9315
:101970008F930E9402038DB79EB706960FB6F89418
:101980009EBF0FBE8DBF02FF0CC080916F00909173
:1019900070008230910528F0019790937000809339
:1019A0006F0003FF09C080916F0090917000019655
:1019B0009093700080936F00FF2009F4B8C086C038
:1019C00060E0862F0E9474028AE191E09F938F93DA
:1019D0000E94020361E080E00E9474020F900F9069
:1019E00080917100909172009F938F9380916F000E
:1019F000909170009F938F938AE291E09F938F93D1
:101A00000E9402038DB79EB706960FB6F8949EBF4C
:101A10000FBE8DBF02FF0CC08091710090917200CB
:101A20008230910528F001979093720080937100A5
:101A300003FF09C08091710090917200019690930C
:101A4000720080937100FF2009F471C03FC060E014
:101A5000862F0E94740289E391E09F938F930E94E6
:101A6000020361E080E00E9474020F900F90809169
:101A70006D0090916E009F938F9388E491E09F9307
:101A80008F930E9402030F900F900F900F9002FF10
:101A90000CC080916D0090916E008230910528F00D
:101AA000019790936E0080936D0003FF0DC08091AD
:101AB0006D0090916E0023E0873E920728F4019616
:101AC00090936E0080936D00FF2089F10E9445097C
:101AD0002EC060E0862F0E94740280919D0090913C
:101AE0009E009F938F9384E591E09F938F930E9434
:101AF000020361E080E00E9474020F900F900F904B
:101B00000F9080918700909188009F938F938EE52E
:101B100091E09F938F930E9402030F900F900F907C
:101B20000F9005C021502093770010927800DF912C
:101B3000CF911F910F91FF9008950F931F93CF9313
:101B4000DF938C01EB010097A1F16CE070E081E084
:101B500090E00E940D11FC01892B21F1209751F09A
:101B6000C287D38721E023838091C1009091C20076
:101B7000892BD1F001151105A9F000871187038188
:101B800002600383A091C300B091C400AB2B51F459
:101B9000F093C400E093C300C091C500D091C6008B
:101BA000CD2B51F0CF010DC0F093C200E093C100E6
:101BB000E1CF672B51F605C0F093C600E093C50056
:101BC000F1CFDF91CF911F910F910895FC0141500A
:101BD000504038F001900616D1F731978E2F9F2F85
:101BE0000895882799270895CF93DF93CDB7DEB75F
:101BF000E5E0F0E0EC0FFD1F81919191AF01BC0198
:101C00008091C3009091C4000E94100EDF91CF918B
:101C100008956091C3007091C4000E942911089535
:101C20002F923F924F925F926F927F928F929F92EC
:101C3000AF92BF92CF92DF92EF92FF920F931F93DA
:101C4000CF93DF93CDB7DEB762970FB6F894DEBFC0
:101C50000FBECDBFAA24BB2465014C011B014D87DB
:101C60005E8744245524FC0146825782838181FD8E
:101C7000ACC28FEF9FEFB8C20894211C311C40FE0C
:101C800092C2862D80538A30F0F4F0E36F1651F43F
:101C90002A89222339F443FC05C080E091E0482AD8
:101CA000592A93C28AE09A89989F902D1124892FEE
:101CB000860D80538A8B882314F4EFE7EA8B43FC6C
:101CC00084C27A8882C243FE05C0FA89FF2311F4D8
:101CD00021E02A8B862D992787FD909588369105DE
:101CE0007CF5853691050CF070C08335910509F4BB
:101CF0009FC084359105BCF48B32910509F447C02F
:101D00008C32910544F48032910509F444C08397E4
:101D100009F44BC03EC28D32910509F441C08E9743
:101D200009F448C036C28336910509F458C0843698
:101D300091050CF09AC08835910509F4D1C029C2EB
:101D40008037910509F4C4C08137910584F48C363D
:101D50009105B1F18D3691052CF48936910509F480
:101D600084C017C28F36910509F4AFC012C28537FF
:101D7000910509F4B7C08637910524F4833791059E
:101D8000B9F107C28837910509F4AAC002C280E1FF
:101D900090E0482A592AE0E2F0E04E2A5F2A15C274
:101DA00020E830E0422A532A10C280E490E0482A1A
:101DB000592A0BC2E8E0F0E04E2A5F2A1A8A05C2CF
:101DC00024E030E0422A532A00C20F2EFFE3AF2E58
:101DD000F02D7A940F2EF3E66F2EF02D65C1ED8570
:101DE000FE85CF0102968D879E87A0807A945CC184
:101DF000ED85FE859F012E5F3F4F2D873E87A0809A
:101E0000B18043FE0BC03A89832F992787FD9095B7
:101E1000BC01C5010E947D128F8707C0F5010190AA
:101E20000020E9F73197EA19EF878F85781A3CC1CE
:101E3000ED85FE859F012E5F3F4F2D873E87A08059
:101E4000B18043FE0BC03A89832F992787FD909577
:101E5000BC01C5010E9488128F8704C0C5010E9481
:101E600074128F878F85781A1FC142FE0CC0ED85D2
:101E7000FE859F012C5F3F4F2D873E87208131815A
:101E8000428153810DC0ED85FE85CF0102968D877D
:101E90009E87808191819C01442737FD4095542F76
:101EA00059016A01552364F4E2E0F0E04E2A5F2A0A
:101EB000D094C094B094A094A11CB11CC11CD11C9E
:101EC0002FEB3FEF422253222CC038E03F870AC05D
:101ED00080E490E0482A592A0F2EF8E76F2EF02D63
:101EE00090E19F8742FE0CC0ED85FE859F012C5F2F
:101EF0003F4F2D873E8720813181428153810BC026
:101F0000ED85FE85CF0102968D879E878081918128
:101F10009C014427552759016A01EFECFFEF4E223F
:101F20005F229E012F5F3F4F288B398B3F85E32E29
:101F3000FF2400271127C601B501A80197010E94BF
:101F40002214DC01CB01E889F98980838A301CF0F6
:101F5000860D815204C0E889F9898081805DE88915
:101F6000F9898193E88BF98BC601B501A801970126
:101F70000E94221459016A012115310541055105BC
:101F8000D1F6CE010196A888A81AC201827390707A
:101F9000892B09F07A9446FE0FC0872D992787FD7B
:101FA0009095FF85F03131F40F2EFEEF7F2EF02D4E
:101FB000780E02C0782E7A9443FE12C08A89282FA8
:101FC000332727FD30958A2D9927821793072CF008
:101FD000E7EFFFEF4E225F2203C0FA89FA19FA8B6E
:101FE00043FE03C02A89721A01C07A18C2018078A0
:101FF0009170892B69F4872D7A9418164CF4B401EA
:1020000080E290E00E942911872D7A941816BCF383
:1020100041FE06C0B4018DE290E00E9429110FC07C
:1020200044FE06C0B4018BE290E00E94291107C073
:1020300045FE05C0B40180E290E00E94291146FEF1
:102040000FC0B40180E390E00E9429113F85303138
:1020500039F4B401862D992787FD90950E942911A6
:10206000852D992780FF0DC0872D7A9418164CF482
:10207000B40180E390E00E942911872D7A9418160C
:10208000BCF343FE11C08A89982F91509A8B181681
:102090005CF4B40180E390E00E9429118A89E82F62
:1020A000E150EA8B1816ACF347FC0DC0872D7A94EB
:1020B00018164CF4B40180E290E00E942911872D9B
:1020C0007A941816BCF3F3E66F1641F48A2DB40126
:1020D000992787FD90950E9429114BC023E762162E
:1020E000B9F43F8531503F873F3F09F442C0F501C5
:1020F00080810894A11CB11CB401992787FD90959B
:102100000E9429118F8581508F878F3F81F731C0C1
:1021100093E56916A1F4EF85E150EF87EF3F49F1B0
:10212000F5018491B40199270E9429110894A11CFA
:10213000B11CFF85F150FF87FF3F91F71AC0CE0118
:102140000196288939898217930799F08E010F5FCC
:102150001F4FE889F9898291E88BF98BB40199279F
:1021600087FD90950E942911288939890217130744
:1021700081F747FE15C0872D7A9418168CF4B401A8
:1021800080E290E00E942911872D7A941816BCF302
:1021900007C0B401862D992787FD90950E942911CB
:1021A0004424552412C035E2631641F444245524D6
:1021B00043941A8A7A888AE08F8707C0B401862DF3
:1021C000992787FD90950E942911F401838183FF4F
:1021D00003C0F101649002C0F1016080662009F043
:1021E0004BCDF4018681978162960FB6F894DEBFDD
:1021F0000FBECDBFDF91CF911F910F91FF90EF9058
:10220000DF90CF90BF90AF909F908F907F906F9016
:102210005F904F903F902F9008950F931F93CF930F
:10222000DF93869F8001879F100D969F100D1124CC
:10223000C8010E945C11EC01009729F0A80160E040
:1022400070E00E946D12CE01DF91CF911F910F912E
:1022500008950F931F93CF93DF938C01EB018B8134
:10226000992781FF22C082FF14C02E813F818C817B
:102270009D81281739073CF4E881F9810193E883AF
:10228000F9832E813F812F5F3F4F2E833F83C8010B
:102290000EC0E885F985802F0995892B31F4AE8130
:1022A000BF811196AE83BF83F2CF8FEF9FEFDF9197
:1022B000CF911F910F910895CF93DF939C010297C7
:1022C00010F422E030E040E050E06091C9007091ED
:1022D000CA00FB01DA016115710569F18081918104
:1022E0008217930709F452C02817390738F44115AB
:1022F000510519F08417950708F4AC01DF0102803D
:10230000F381E02D309751F741155105A1F0DA0125
:10231000A21BB30B149708F443C0DB010AC06D91F4
:102320007C9111976417750709F450C0FD01A281D3
:10233000B3811097A1F7E091C700F091C8003097E2
:1023400041F4E0917B00F0917C00F093C800E093B1
:10235000C7004091790050917A004115510529F14B
:102360004E1B5F0B42175307E8F0C901029648174E
:102370005907C0F0EF01C20FD31F2296D093C800B7
:10238000C093C70021933193CF0142C01097B1F0A1
:1023900082819381ED018A839B83CF01029638C0AD
:1023A0009A01BBCF80E090E033C04DB75EB7A091FB
:1023B0007D00B0917E004A1B5B0BD2CF228133811E
:1023C0003093CA002093C900CF01E8CF2417350706
:1023D00061F0EA01C21BD30BFD01EC0FFD1F21933D
:1023E00031932297CD93DC93CFCF309741F0ED011D
:1023F0004A815B8142835383CD01029609C0FD016E
:10240000828193819093CA008093C900CD01F5CF5A
:10241000DF91CF910895CF93DF93009709F45AC0CD
:10242000DC011297ED011A821B828091C900909104
:10243000CA000097D9F1FC0140E050E0EA17FB0721
:1024400048F4AF010280F381E02D3097A1F0EA1744
:10245000FB07B8F3ED01EA83FB832D913C911197C3
:10246000E901CA0FDB1FCE0102968E179F0719F1F3
:1024700041155105D9F0EA01AA83BB83CA0102962E
:1024800028813981820F931F8A179B0719F56D9157
:102490007C911197260F371F2E5F3F4F288339837A
:1024A000FD01428153814A835B8314C0B093CA000B
:1024B000A093C9000FC06A817B81260F371F2E5F52
:1024C0003F4F2D933C93119722813381FD0122834D
:1024D0003383CECFDF91CF910895DC0101C06D939E
:1024E00041505040E0F70895FC0105900020E9F7C5
:1024F000809590958E0F9F1F0895FC01615070404C
:1025000001900110D8F7809590958E0F9F1F089528
:10251000FC016150704005900110D8F780959095AE
:102520008E0F9F1F08955058192ED5D001D0B8C0D6
:10253000BA176207730784079507B1F188F40EF4A0
:1025400010940B2EBA2FA02D062E622F202D072EB1
:10255000732F302D082E842F402D092E952F502DAE
:10256000FF275523B9F0591B49F0573E98F046957F
:1025700037952795A795F0405395C9F776F0BA0F90
:10258000621F731F841F30F4879577956795B79501
:10259000F040939517FA0F2E0895BF1BBB27BA0B77
:1025A000620B730B840BF6CFDEF6B2C0592F482FA7
:1025B000372F262F9FE380E8772766278CD001D01E
:1025C0006FC0552359F0992369F09F575F57951BAA
:1025D00033F442F4903811F4915805C079C0915801
:1025E0009F3F09F495C0BB27112462177307840726
:1025F00030F4660F771F881FBB1F915098F311D0DE
:102600000F920FD00F920DD0A0E82617370748077A
:102610001B0609F0A048BA2F602D7F918F910024EE
:102620000895A0E80024621773078407B10528F015
:10263000621B730B840BB1090A2A660F771F881F70
:10264000BB1FA69581F7089597FB51D09F3738F0AF
:10265000FEE9F91B982F872F762F6B2F05C055C0E9
:102660009695879577956795F150D0F73EF49095BC
:102670008095709561957F4F8F4F9F4F0895E89497
:1026800003C097FB0EF4F3DFB62F672F782F892F47
:102690009EE9002405C09A95BB0F661F771F881F0F
:1026A00011249923A1F08823B2F79F3F59F0BB0F63
:1026B00048F421F4002011F460FF04C06F5F7F4FE5
:1026C0008F4F9F4F881F9795879597F908951DC045
:1026D0009FEF80EC0895052E092607FA440F551F39
:1026E0005F3F79F0AA27A51708F051E04795880FBA
:1026F000991F9F3F31F0BB27B91708F091E08795EC
:1027000008959F919F911124E3CF6627772788270B
:1027100099270895592F482F372F262FDCDF01D016
:10272000BFCF992339F0552329F09F575F57950F55
:1027300013F4CAF1EDCF91589F3FE1F3A62F002487
:102740001124BB2766275527F8E0A69520F4020E32
:10275000131EB41F651F220F331F441F551FFA9508
:10276000A1F7F8E0E72F7727F8E0E69520F4130EBD
:10277000B41F651F7A1F330F441F551FAA1FFA95F8
:10278000A1F7F82F8827F69520F4B40F651F7A1F5C
:102790008E1F440F551FAA1FEE1FFF23A1F788238A
:1027A0001AF4939539F494CF000C111CBB1F661FCB
:1027B000771F881F01280895629FD001739FF00141
:1027C000829FE00DF11D649FE00DF11D929FF00DC1
:1027D000839FF00D749FF00D659FF00D9927729FF8
:1027E000B00DE11DF91F639FB00DE11DF91FBD0183
:1027F000CF0111240895AA1BBB1B51E107C0AA1FDA
:10280000BB1FA617B70710F0A61BB70B881F991F91
:102810005A95A9F780959095BC01CD01089597FB35
:10282000092E07260AD077FD04D0E5DF06D0002068
:102830001AF4709561957F4F0895F6F790958195FC
:102840009F4F0895A1E21A2EAA1BBB1BFD010DC0CC
:10285000AA1FBB1FEE1FFF1FA217B307E407F50750
:1028600020F0A21BB30BE40BF50B661F771F881F2C
:10287000991F1A9469F760957095809590959B01C2
:08288000AC01BD01CF01089578
:102888000D2B0020253469004D6F696E0014000679
:10289800000100181588130A040000CB002000006E
:00000001FF
